:0502D30003080000001B
:100109007B007A00790812016D12025D7B007A008A
:1001190079081201BFE5087006E5097002D200E509
:10012900087007E509B40102C200E5087007E5098E
:10013900B40202D200E5087007E509B40302C2005F
:10014900300004D2878005200002C287AF0812025E
:10015900C3AF091202C3AF0A1202C37FE87E0312BA
:04016900029680A8D2
:10029600D3EF9400EE94004010007D027CC7DCFE94
:0902A600DDFCEF1F70EA1E80E789
:0102AF00222C
:1002B000E4FEC290EF139291EFC313FFD2900EBEF3
:0202C00008F044
:0102C2002219
:08027A0075F00A84E5F04EFD69
:10028200C29200C29000D292001202B0AF051202D6
:04029200B0C2922242
:10020400E4FDC29200C29000D292001202B0E4FF58
:10021400C290EDC313FD309103430580D2900FBF0C
:1002240008EEC29200C29000D29000C29100D29116
:0302340000AF0513
:0102370022A4
:10016D00E4FD7F8E12028212008FFF75F00A84C4A7
:10017D0054F0FEEF7F8412027A9000011200A8FF66
:10018D0075F00A84C454F0FEEF7F8212027A90005B
:10019D00021200A8FF75F00A84C454F0FEEF75F04A
:1001AD000A84E5F04EFD7F801202827D807F8E02F3
:0201BD000282BC
:1001BF007F85120204EFC4540F75F00AA4FEEF54AA
:1001CF000F2E1200D57F83120204EFC4540F75F067
:1001DF000AA4FEEF540F2E9000011200E77F811248
:1001EF000204EFC4540F75F00AA4FEEF540F2E90C3
:0501FF0000020200E710
:10025D0053877F759850538EBF538EFE53890F432E
:0D026D008920758BFD758DFDC2ABD28E22F0
:1002C3002001FDEFD201F5993099FDC299C20122B7
:100238008B0B8A0C890DAB0BAA0CA90D12008F60D1
:1002480013050DE50D7002050C14F912008FFF124D
:0502580002C380E22258
:03000000020003F8
:0C000300787FE4F6D8FD75812002004AE9
:10008F00BB010689828A83E0225002E722BBFE026F
:09009F00E32289828A83E49322A2
:1000A800BB010CE58229F582E5833AF583E022500D
:1000B80006E92582F8E622BBFE06E92582F8E22257
:0D00C800E58229F582E5833AF583E4932271
:1000D500BB010689828A83F0225002F722BBFE010A
:0200E500F32204
:1000E700F8BB010DE58229F582E5833AF583E8F04F
:1000F700225006E92582C8F622BBFE05E92582C8FB
:02010700F222E2
:10000F00020109E493A3F8E493A34003F68001F2FD
:10001F0008DFF48029E493A3F85407240CC8C333F2
:10002F00C4540F4420C8834004F456800146F6DFC1
:10003F00E4800B01020408102040809002D3E47E7C
:10004F00019360BCA3FF543F30E509541FFEE493B6
:10005F00A360010ECF54C025E060A840B8E493A37D
:10006F00FAE493A3F8E493A3C8C582C8CAC583CAA8
:10007F00F0A3C8C582C8CAC583CADFE9DEE780BE60
:0102D8000025
:00000001FF
